:100000000C942A000C943F000C943F000C943F0089
:100010000C943F000C943F000C943F000C943F0064
:100020000C943F000C943F000C943F000C943F0054
:100030000C943F000C943F000C943F000C943F0044
:100040000C943F000C943F000C943F000C943F0034
:100050000C943F0011241FBECFE5D8E0DEBFCDBF1A
:1000600010E0A0E6B0E0E6E9F1E002C005900D92F4
:10007000A237B107D9F70E94B6000C94C9000C94BE
:10008000000098B3282F207F9F70292B28BBC09891
:10009000C19A22E0922F9A95F1F7C198E0E9F1E038
:1000A0003197F1F798B38295807F9F70982B98BB1A
:1000B000C19A2A95F1F7C19880EA9FE00197F1F77C
:1000C000089587B3836F87BB81E00E94410082E07F
:1000D0000E94410088E20E94410080E80E944100A5
:1000E0008EE00E94410080EA9FE00197F1F70895B9
:1000F00098B3282F207F9F70292B28BBC09AC19AC4
:1001000022E0922F9A95F1F7C198E0E9F1E031975A
:10011000F1F798B38295807F9F70982B98BBC19A16
:100120002A95F1F7C19880EA9FE00197F1F70895C9
:10013000EF92FF921F93CF93DF93EC0110E080EAE0
:10014000E82E8FE0F82E06C00E947800C7010197C4
:10015000F1F71F5FFE01E10FF11D80818823A1F7F8
:10016000DF91CF911F91FF90EF9008950E94610061
:1001700080E690E00E94980080EC0E94410087E6B3
:1001800090E00E9498008CE00E94410080E090E0A6
:060190000895F894FFCF72
:10019600417369746861004E6176617261746E655F
:0201A600000057
:00000001FF
